{
  "contractName": "Dex",
  "abi": [
    {
      "anonymous": false,
      "inputs": [
        {
          "indexed": true,
          "internalType": "address",
          "name": "previousOwner",
          "type": "address"
        },
        {
          "indexed": true,
          "internalType": "address",
          "name": "newOwner",
          "type": "address"
        }
      ],
      "name": "OwnershipTransferred",
      "type": "event"
    },
    {
      "inputs": [
        {
          "internalType": "bytes32",
          "name": "ticker",
          "type": "bytes32"
        },
        {
          "internalType": "address",
          "name": "tokenAddress",
          "type": "address"
        }
      ],
      "name": "addToken",
      "outputs": [],
      "stateMutability": "nonpayable",
      "type": "function"
    },
    {
      "inputs": [],
      "name": "balanceEth",
      "outputs": [
        {
          "internalType": "uint256",
          "name": "",
          "type": "uint256"
        }
      ],
      "stateMutability": "view",
      "type": "function"
    },
    {
      "inputs": [
        {
          "internalType": "address",
          "name": "",
          "type": "address"
        },
        {
          "internalType": "bytes32",
          "name": "",
          "type": "bytes32"
        }
      ],
      "name": "balances",
      "outputs": [
        {
          "internalType": "uint256",
          "name": "",
          "type": "uint256"
        }
      ],
      "stateMutability": "view",
      "type": "function"
    },
    {
      "inputs": [
        {
          "internalType": "uint256",
          "name": "amount",
          "type": "uint256"
        },
        {
          "internalType": "bytes32",
          "name": "ticker",
          "type": "bytes32"
        }
      ],
      "name": "deposit",
      "outputs": [],
      "stateMutability": "nonpayable",
      "type": "function"
    },
    {
      "inputs": [],
      "name": "depositEth",
      "outputs": [],
      "stateMutability": "payable",
      "type": "function"
    },
    {
      "inputs": [],
      "name": "nextOrderId",
      "outputs": [
        {
          "internalType": "uint256",
          "name": "",
          "type": "uint256"
        }
      ],
      "stateMutability": "view",
      "type": "function"
    },
    {
      "inputs": [
        {
          "internalType": "bytes32",
          "name": "",
          "type": "bytes32"
        },
        {
          "internalType": "uint256",
          "name": "",
          "type": "uint256"
        },
        {
          "internalType": "uint256",
          "name": "",
          "type": "uint256"
        }
      ],
      "name": "orderBook",
      "outputs": [
        {
          "internalType": "uint256",
          "name": "id",
          "type": "uint256"
        },
        {
          "internalType": "address",
          "name": "trader",
          "type": "address"
        },
        {
          "internalType": "enum Dex.Side",
          "name": "side",
          "type": "uint8"
        },
        {
          "internalType": "bytes32",
          "name": "ticker",
          "type": "bytes32"
        },
        {
          "internalType": "uint256",
          "name": "amount",
          "type": "uint256"
        },
        {
          "internalType": "uint256",
          "name": "price",
          "type": "uint256"
        },
        {
          "internalType": "uint256",
          "name": "filled",
          "type": "uint256"
        }
      ],
      "stateMutability": "view",
      "type": "function"
    },
    {
      "inputs": [],
      "name": "owner",
      "outputs": [
        {
          "internalType": "address",
          "name": "",
          "type": "address"
        }
      ],
      "stateMutability": "view",
      "type": "function"
    },
    {
      "inputs": [],
      "name": "renounceOwnership",
      "outputs": [],
      "stateMutability": "nonpayable",
      "type": "function"
    },
    {
      "inputs": [
        {
          "internalType": "uint256",
          "name": "",
          "type": "uint256"
        }
      ],
      "name": "tokenList",
      "outputs": [
        {
          "internalType": "bytes32",
          "name": "",
          "type": "bytes32"
        }
      ],
      "stateMutability": "view",
      "type": "function"
    },
    {
      "inputs": [
        {
          "internalType": "bytes32",
          "name": "",
          "type": "bytes32"
        }
      ],
      "name": "tokenMapping",
      "outputs": [
        {
          "internalType": "bytes32",
          "name": "ticker",
          "type": "bytes32"
        },
        {
          "internalType": "address",
          "name": "tokenAddress",
          "type": "address"
        }
      ],
      "stateMutability": "view",
      "type": "function"
    },
    {
      "inputs": [
        {
          "internalType": "address",
          "name": "newOwner",
          "type": "address"
        }
      ],
      "name": "transferOwnership",
      "outputs": [],
      "stateMutability": "nonpayable",
      "type": "function"
    },
    {
      "inputs": [
        {
          "internalType": "uint256",
          "name": "amount",
          "type": "uint256"
        },
        {
          "internalType": "bytes32",
          "name": "ticker",
          "type": "bytes32"
        }
      ],
      "name": "withdraw",
      "outputs": [],
      "stateMutability": "nonpayable",
      "type": "function"
    },
    {
      "inputs": [
        {
          "internalType": "bytes32",
          "name": "ticker",
          "type": "bytes32"
        },
        {
          "internalType": "enum Dex.Side",
          "name": "side",
          "type": "uint8"
        }
      ],
      "name": "getOrderBook",
      "outputs": [
        {
          "components": [
            {
              "internalType": "uint256",
              "name": "id",
              "type": "uint256"
            },
            {
              "internalType": "address",
              "name": "trader",
              "type": "address"
            },
            {
              "internalType": "enum Dex.Side",
              "name": "side",
              "type": "uint8"
            },
            {
              "internalType": "bytes32",
              "name": "ticker",
              "type": "bytes32"
            },
            {
              "internalType": "uint256",
              "name": "amount",
              "type": "uint256"
            },
            {
              "internalType": "uint256",
              "name": "price",
              "type": "uint256"
            },
            {
              "internalType": "uint256",
              "name": "filled",
              "type": "uint256"
            }
          ],
          "internalType": "struct Dex.Order[]",
          "name": "",
          "type": "tuple[]"
        }
      ],
      "stateMutability": "view",
      "type": "function"
    },
    {
      "inputs": [
        {
          "internalType": "enum Dex.Side",
          "name": "side",
          "type": "uint8"
        },
        {
          "internalType": "bytes32",
          "name": "ticker",
          "type": "bytes32"
        },
        {
          "internalType": "uint256",
          "name": "amount",
          "type": "uint256"
        },
        {
          "internalType": "uint256",
          "name": "price",
          "type": "uint256"
        }
      ],
      "name": "createLimitOrder",
      "outputs": [],
      "stateMutability": "nonpayable",
      "type": "function"
    },
    {
      "inputs": [
        {
          "internalType": "enum Dex.Side",
          "name": "side",
          "type": "uint8"
        },
        {
          "internalType": "bytes32",
          "name": "ticker",
          "type": "bytes32"
        },
        {
          "internalType": "uint256",
          "name": "amount",
          "type": "uint256"
        }
      ],
      "name": "createMarketOrder",
      "outputs": [],
      "stateMutability": "nonpayable",
      "type": "function"
    }
  ],
  "bytecode": "0x608060405260006004553480156200001657600080fd5b50620000376200002b6200003d60201b60201c565b6200004560201b60201c565b62000109565b600033905090565b60008060009054906101000a900473ffffffffffffffffffffffffffffffffffffffff169050816000806101000a81548173ffffffffffffffffffffffffffffffffffffffff021916908373ffffffffffffffffffffffffffffffffffffffff1602179055508173ffffffffffffffffffffffffffffffffffffffff168173ffffffffffffffffffffffffffffffffffffffff167f8be0079c531659141344cd1fd0a4f28419497f9722a3daafe3b4186f6b6457e060405160405180910390a35050565b61308180620001196000396000f3fe6080604052600436106100f35760003560e01c80638da5cb5b1161008a578063a8d2021a11610059578063a8d2021a14610310578063ba58ea6814610339578063c9630cb014610376578063f2fde38b1461039f576100f3565b80638da5cb5b146102565780639776aacf1461028157806399ec2f1c146102aa5780639ead7222146102d3576100f3565b80635cdad9c2116100c65780635cdad9c2146101ad578063667cb4ba146101d85780636f3b62f914610216578063715018a61461023f576100f3565b80630bb431b6146100f85780631f14df691461013b5780632a58b33014610178578063439370b1146101a3575b600080fd5b34801561010457600080fd5b5061011f600480360381019061011a91906124a4565b6103c8565b60405161013297969594939291906125cd565b60405180910390f35b34801561014757600080fd5b50610162600480360381019061015d9190612668565b610461565b60405161016f91906126a8565b60405180910390f35b34801561018457600080fd5b5061018d610486565b60405161019a91906126a8565b60405180910390f35b6101ab61048c565b005b3480156101b957600080fd5b506101c2610585565b6040516101cf91906126a8565b60405180910390f35b3480156101e457600080fd5b506101ff60048036038101906101fa91906126c3565b6105fd565b60405161020d9291906126f0565b60405180910390f35b34801561022257600080fd5b5061023d6004803603810190610238919061273e565b610641565b005b34801561024b57600080fd5b50610254611095565b005b34801561026257600080fd5b5061026b61111d565b60405161027891906127a5565b60405180910390f35b34801561028d57600080fd5b506102a860048036038101906102a391906127c0565b611146565b005b3480156102b657600080fd5b506102d160048036038101906102cc9190612800565b611281565b005b3480156102df57600080fd5b506102fa60048036038101906102f59190612853565b611beb565b6040516103079190612880565b60405180910390f35b34801561031c57600080fd5b506103376004803603810190610332919061289b565b611c0f565b005b34801561034557600080fd5b50610360600480360381019061035b91906128db565b611eba565b60405161036d9190612a94565b60405180910390f35b34801561038257600080fd5b5061039d6004803603810190610398919061289b565b612013565b005b3480156103ab57600080fd5b506103c660048036038101906103c19190612ab6565b61222d565b005b600560205282600052604060002060205281600052604060002081815481106103f057600080fd5b906000526020600020906006020160009250925050508060000154908060010160009054906101000a900473ffffffffffffffffffffffffffffffffffffffff16908060010160149054906101000a900460ff16908060020154908060030154908060040154908060050154905087565b6003602052816000526040600020602052806000526040600020600091509150505481565b60045481565b61050f34600360003373ffffffffffffffffffffffffffffffffffffffff1673ffffffffffffffffffffffffffffffffffffffff16815260200190815260200160002060007f455448000000000000000000000000000000000000000000000000000000000081526020019081526020016000205461232590919063ffffffff16565b600360003373ffffffffffffffffffffffffffffffffffffffff1673ffffffffffffffffffffffffffffffffffffffff16815260200190815260200160002060007f4554480000000000000000000000000000000000000000000000000000000000815260200190815260200160002081905550565b6000600360003373ffffffffffffffffffffffffffffffffffffffff1673ffffffffffffffffffffffffffffffffffffffff16815260200190815260200160002060007f4554480000000000000000000000000000000000000000000000000000000000815260200190815260200160002054905090565b60016020528060005260406000206000915090508060000154908060010160009054906101000a900473ffffffffffffffffffffffffffffffffffffffff16905082565b6000600181111561065557610654612547565b5b84600181111561066857610667612547565b5b141561070257610681818361233b90919063ffffffff16565b600360003373ffffffffffffffffffffffffffffffffffffffff1673ffffffffffffffffffffffffffffffffffffffff16815260200190815260200160002060007f455448000000000000000000000000000000000000000000000000000000000081526020019081526020016000205410156106fd57600080fd5b61078d565b60018081111561071557610714612547565b5b84600181111561072857610727612547565b5b141561078c5781600360003373ffffffffffffffffffffffffffffffffffffffff1673ffffffffffffffffffffffffffffffffffffffff168152602001908152602001600020600085815260200190815260200160002054101561078b57600080fd5b5b5b60006005600085815260200190815260200160002060008660018111156107b7576107b6612547565b5b81526020019081526020016000209050806040518060e0016040528060045481526020013373ffffffffffffffffffffffffffffffffffffffff16815260200187600181111561080a57610809612547565b5b8152602001868152602001858152602001848152602001600081525090806001815401808255809150506001900390600052602060002090600602016000909190919091506000820151816000015560208201518160010160006101000a81548173ffffffffffffffffffffffffffffffffffffffff021916908373ffffffffffffffffffffffffffffffffffffffff16021790555060408201518160010160146101000a81548160ff021916908360018111156108cb576108ca612547565b5b0217905550606082015181600201556080820151816003015560a0820151816004015560c0820151816005015550506000600181111561090e5761090d612547565b5b85600181111561092157610920612547565b5b1415610cba5760006001828054905061093a9190612b12565b90505b6000811115610cb457816001826109549190612b12565b8154811061096557610964612b46565b5b90600052602060002090600602016004015482828154811061098a57610989612b46565b5b9060005260206000209060060201600401541015610c9c5760008282815481106109b7576109b6612b46565b5b90600052602060002090600602016040518060e0016040529081600082015481526020016001820160009054906101000a900473ffffffffffffffffffffffffffffffffffffffff1673ffffffffffffffffffffffffffffffffffffffff1673ffffffffffffffffffffffffffffffffffffffff1681526020016001820160149054906101000a900460ff166001811115610a5557610a54612547565b5b6001811115610a6757610a66612547565b5b8152602001600282015481526020016003820154815260200160048201548152602001600582015481525050905082600183610aa39190612b12565b81548110610ab457610ab3612b46565b5b9060005260206000209060060201838381548110610ad557610ad4612b46565b5b9060005260206000209060060201600082015481600001556001820160009054906101000a900473ffffffffffffffffffffffffffffffffffffffff168160010160006101000a81548173ffffffffffffffffffffffffffffffffffffffff021916908373ffffffffffffffffffffffffffffffffffffffff1602179055506001820160149054906101000a900460ff168160010160146101000a81548160ff02191690836001811115610b8c57610b8b612547565b5b0217905550600282015481600201556003820154816003015560048201548160040155600582015481600501559050508083600184610bcb9190612b12565b81548110610bdc57610bdb612b46565b5b90600052602060002090600602016000820151816000015560208201518160010160006101000a81548173ffffffffffffffffffffffffffffffffffffffff021916908373ffffffffffffffffffffffffffffffffffffffff16021790555060408201518160010160146101000a81548160ff02191690836001811115610c6657610c65612547565b5b0217905550606082015181600201556080820151816003015560a0820151816004015560c0820151816005015590505050610ca1565b610cb4565b8080610cac90612b75565b91505061093d565b50611076565b600180811115610ccd57610ccc612547565b5b856001811115610ce057610cdf612547565b5b141561107557600060018280549050610cf99190612b12565b90505b60008111156110735781600182610d139190612b12565b81548110610d2457610d23612b46565b5b906000526020600020906006020160040154828281548110610d4957610d48612b46565b5b906000526020600020906006020160040154111561105b576000828281548110610d7657610d75612b46565b5b90600052602060002090600602016040518060e0016040529081600082015481526020016001820160009054906101000a900473ffffffffffffffffffffffffffffffffffffffff1673ffffffffffffffffffffffffffffffffffffffff1673ffffffffffffffffffffffffffffffffffffffff1681526020016001820160149054906101000a900460ff166001811115610e1457610e13612547565b5b6001811115610e2657610e25612547565b5b8152602001600282015481526020016003820154815260200160048201548152602001600582015481525050905082600183610e629190612b12565b81548110610e7357610e72612b46565b5b9060005260206000209060060201838381548110610e9457610e93612b46565b5b9060005260206000209060060201600082015481600001556001820160009054906101000a900473ffffffffffffffffffffffffffffffffffffffff168160010160006101000a81548173ffffffffffffffffffffffffffffffffffffffff021916908373ffffffffffffffffffffffffffffffffffffffff1602179055506001820160149054906101000a900460ff168160010160146101000a81548160ff02191690836001811115610f4b57610f4a612547565b5b0217905550600282015481600201556003820154816003015560048201548160040155600582015481600501559050508083600184610f8a9190612b12565b81548110610f9b57610f9a612b46565b5b90600052602060002090600602016000820151816000015560208201518160010160006101000a81548173ffffffffffffffffffffffffffffffffffffffff021916908373ffffffffffffffffffffffffffffffffffffffff16021790555060408201518160010160146101000a81548160ff0219169083600181111561102557611024612547565b5b0217905550606082015181600201556080820151816003015560a0820151816004015560c0820151816005015590505050611060565b611073565b808061106b90612b75565b915050610cfc565b505b5b6004600081548092919061108990612b9f565b91905055505050505050565b61109d612351565b73ffffffffffffffffffffffffffffffffffffffff166110bb61111d565b73ffffffffffffffffffffffffffffffffffffffff1614611111576040517f08c379a000000000000000000000000000000000000000000000000000000000815260040161110890612c45565b60405180910390fd5b61111b6000612359565b565b60008060009054906101000a900473ffffffffffffffffffffffffffffffffffffffff16905090565b61114e612351565b73ffffffffffffffffffffffffffffffffffffffff1661116c61111d565b73ffffffffffffffffffffffffffffffffffffffff16146111c2576040517f08c379a00000000000000000000000000000000000000000000000000000000081526004016111b990612c45565b60405180910390fd5b60405180604001604052808381526020018273ffffffffffffffffffffffffffffffffffffffff16815250600160008481526020019081526020016000206000820151816000015560208201518160010160006101000a81548173ffffffffffffffffffffffffffffffffffffffff021916908373ffffffffffffffffffffffffffffffffffffffff16021790555090505060028290806001815401808255809150506001900390600052602060002001600090919091909150555050565b80600360003373ffffffffffffffffffffffffffffffffffffffff1673ffffffffffffffffffffffffffffffffffffffff1681526020019081526020016000206000848152602001908152602001600020541015611314576040517f08c379a000000000000000000000000000000000000000000000000000000000815260040161130b90612cb1565b60405180910390fd5b600080600181111561132957611328612547565b5b84600181111561133c5761133b612547565b5b141561134b5760019050611350565b600090505b600060056000858152602001908152602001600020600083815260200190815260200160002090506000806001838054905061138c9190612b12565b90505b6000811015801561139f57508482105b15611ac557600082866113b29190612b12565b8483815481106113c5576113c4612b46565b5b906000526020600020906006020160030154111561144f5782866113e99190612b12565b90506114228185848154811061140257611401612b46565b5b90600052602060002090600602016003015461241d90919063ffffffff16565b84838154811061143557611434612b46565b5b9060005260206000209060060201600301819055506114cb565b83828154811061146257611461612b46565b5b9060005260206000209060060201600301549050600084838154811061148b5761148a612b46565b5b90600052602060002090600602016003018190555060018483815481106114b5576114b4612b46565b5b9060005260206000209060060201600501819055505b6114de818461232590919063ffffffff16565b925060008060018111156114f5576114f4612547565b5b89600181111561150857611507612547565b5b14156118575761154585848154811061152457611523612b46565b5b9060005260206000209060060201600401548361233b90919063ffffffff16565b905080600360003373ffffffffffffffffffffffffffffffffffffffff1673ffffffffffffffffffffffffffffffffffffffff16815260200190815260200160002060007f455448000000000000000000000000000000000000000000000000000000000081526020019081526020016000205410156115fa576040517f08c379a00000000000000000000000000000000000000000000000000000000081526004016115f190612d1d565b60405180910390fd5b61167d81600360003373ffffffffffffffffffffffffffffffffffffffff1673ffffffffffffffffffffffffffffffffffffffff16815260200190815260200160002060007f455448000000000000000000000000000000000000000000000000000000000081526020019081526020016000205461241d90919063ffffffff16565b50611725826003600088878154811061169957611698612b46565b5b906000526020600020906006020160010160009054906101000a900473ffffffffffffffffffffffffffffffffffffffff1673ffffffffffffffffffffffffffffffffffffffff1673ffffffffffffffffffffffffffffffffffffffff16815260200190815260200160002060008b81526020019081526020016000205461241d90919063ffffffff16565b5061178982600360003373ffffffffffffffffffffffffffffffffffffffff1673ffffffffffffffffffffffffffffffffffffffff16815260200190815260200160002060008b81526020019081526020016000205461232590919063ffffffff16565b5061185181600360008887815481106117a5576117a4612b46565b5b906000526020600020906006020160010160009054906101000a900473ffffffffffffffffffffffffffffffffffffffff1673ffffffffffffffffffffffffffffffffffffffff1673ffffffffffffffffffffffffffffffffffffffff16815260200190815260200160002060007f455448000000000000000000000000000000000000000000000000000000000081526020019081526020016000205461232590919063ffffffff16565b50611ab0565b6118ba82600360003373ffffffffffffffffffffffffffffffffffffffff1673ffffffffffffffffffffffffffffffffffffffff16815260200190815260200160002060008b81526020019081526020016000205461241d90919063ffffffff16565b5061198281600360008887815481106118d6576118d5612b46565b5b906000526020600020906006020160010160009054906101000a900473ffffffffffffffffffffffffffffffffffffffff1673ffffffffffffffffffffffffffffffffffffffff1673ffffffffffffffffffffffffffffffffffffffff16815260200190815260200160002060007f455448000000000000000000000000000000000000000000000000000000000081526020019081526020016000205461241d90919063ffffffff16565b50611a0681600360003373ffffffffffffffffffffffffffffffffffffffff1673ffffffffffffffffffffffffffffffffffffffff16815260200190815260200160002060007f455448000000000000000000000000000000000000000000000000000000000081526020019081526020016000205461232590919063ffffffff16565b50611aae8260036000888781548110611a2257611a21612b46565b5b906000526020600020906006020160010160009054906101000a900473ffffffffffffffffffffffffffffffffffffffff1673ffffffffffffffffffffffffffffffffffffffff1673ffffffffffffffffffffffffffffffffffffffff16815260200190815260200160002060008b81526020019081526020016000205461232590919063ffffffff16565b505b50508080611abd90612b75565b91505061138f565b506000828054905090506000600182611ade9190612b12565b90505b818111158015611b1557506000848281548110611b0157611b00612b46565b5b906000526020600020906006020160030154145b15611be1576000848281548110611b2f57611b2e612b46565b5b9060005260206000209060060201600301541415611bdc5783805480611b5857611b57612d3d565b5b60019003818190600052602060002090600602016000808201600090556001820160006101000a81549073ffffffffffffffffffffffffffffffffffffffff02191690556001820160146101000a81549060ff0219169055600282016000905560038201600090556004820160009055600582016000905550509055838054905091505b611ae1565b5050505050505050565b60028181548110611bfb57600080fd5b906000526020600020016000915090505481565b80600073ffffffffffffffffffffffffffffffffffffffff166001600083815260200190815260200160002060010160009054906101000a900473ffffffffffffffffffffffffffffffffffffffff1673ffffffffffffffffffffffffffffffffffffffff161415611cb6576040517f08c379a0000000000000000000000000000000000000000000000000000000008152600401611cad90612db8565b60405180910390fd5b82600360003373ffffffffffffffffffffffffffffffffffffffff1673ffffffffffffffffffffffffffffffffffffffff1681526020019081526020016000206000848152602001908152602001600020541015611d49576040517f08c379a0000000000000000000000000000000000000000000000000000000008152600401611d4090612e24565b60405180910390fd5b611dac83600360003373ffffffffffffffffffffffffffffffffffffffff1673ffffffffffffffffffffffffffffffffffffffff16815260200190815260200160002060008581526020019081526020016000205461241d90919063ffffffff16565b600360003373ffffffffffffffffffffffffffffffffffffffff1673ffffffffffffffffffffffffffffffffffffffff1681526020019081526020016000206000848152602001908152602001600020819055506001600083815260200190815260200160002060010160009054906101000a900473ffffffffffffffffffffffffffffffffffffffff1673ffffffffffffffffffffffffffffffffffffffff1663a9059cbb33856040518363ffffffff1660e01b8152600401611e71929190612e44565b6020604051808303816000875af1158015611e90573d6000803e3d6000fd5b505050506040513d601f19601f82011682018060405250810190611eb49190612ea5565b50505050565b6060600560008481526020019081526020016000206000836001811115611ee457611ee3612547565b5b8152602001908152602001600020805480602002602001604051908101604052809291908181526020016000905b8282101561200757838290600052602060002090600602016040518060e0016040529081600082015481526020016001820160009054906101000a900473ffffffffffffffffffffffffffffffffffffffff1673ffffffffffffffffffffffffffffffffffffffff1673ffffffffffffffffffffffffffffffffffffffff1681526020016001820160149054906101000a900460ff166001811115611fba57611fb9612547565b5b6001811115611fcc57611fcb612547565b5b815260200160028201548152602001600382015481526020016004820154815260200160058201548152505081526020019060010190611f12565b50505050905092915050565b80600073ffffffffffffffffffffffffffffffffffffffff166001600083815260200190815260200160002060010160009054906101000a900473ffffffffffffffffffffffffffffffffffffffff1673ffffffffffffffffffffffffffffffffffffffff1614156120ba576040517f08c379a00000000000000000000000000000000000000000000000000000000081526004016120b190612db8565b60405180910390fd5b6001600083815260200190815260200160002060010160009054906101000a900473ffffffffffffffffffffffffffffffffffffffff1673ffffffffffffffffffffffffffffffffffffffff166323b872dd3330866040518463ffffffff1660e01b815260040161212d93929190612ed2565b6020604051808303816000875af115801561214c573d6000803e3d6000fd5b505050506040513d601f19601f820116820180604052508101906121709190612ea5565b506121d483600360003373ffffffffffffffffffffffffffffffffffffffff1673ffffffffffffffffffffffffffffffffffffffff16815260200190815260200160002060008581526020019081526020016000205461232590919063ffffffff16565b600360003373ffffffffffffffffffffffffffffffffffffffff1673ffffffffffffffffffffffffffffffffffffffff168152602001908152602001600020600084815260200190815260200160002081905550505050565b612235612351565b73ffffffffffffffffffffffffffffffffffffffff1661225361111d565b73ffffffffffffffffffffffffffffffffffffffff16146122a9576040517f08c379a00000000000000000000000000000000000000000000000000000000081526004016122a090612c45565b60405180910390fd5b600073ffffffffffffffffffffffffffffffffffffffff168173ffffffffffffffffffffffffffffffffffffffff161415612319576040517f08c379a000000000000000000000000000000000000000000000000000000000815260040161231090612f7b565b60405180910390fd5b61232281612359565b50565b600081836123339190612f9b565b905092915050565b600081836123499190612ff1565b905092915050565b600033905090565b60008060009054906101000a900473ffffffffffffffffffffffffffffffffffffffff169050816000806101000a81548173ffffffffffffffffffffffffffffffffffffffff021916908373ffffffffffffffffffffffffffffffffffffffff1602179055508173ffffffffffffffffffffffffffffffffffffffff168173ffffffffffffffffffffffffffffffffffffffff167f8be0079c531659141344cd1fd0a4f28419497f9722a3daafe3b4186f6b6457e060405160405180910390a35050565b6000818361242b9190612b12565b905092915050565b600080fd5b6000819050919050565b61244b81612438565b811461245657600080fd5b50565b60008135905061246881612442565b92915050565b6000819050919050565b6124818161246e565b811461248c57600080fd5b50565b60008135905061249e81612478565b92915050565b6000806000606084860312156124bd576124bc612433565b5b60006124cb86828701612459565b93505060206124dc8682870161248f565b92505060406124ed8682870161248f565b9150509250925092565b6125008161246e565b82525050565b600073ffffffffffffffffffffffffffffffffffffffff82169050919050565b600061253182612506565b9050919050565b61254181612526565b82525050565b7f4e487b7100000000000000000000000000000000000000000000000000000000600052602160045260246000fd5b6002811061258757612586612547565b5b50565b600081905061259882612576565b919050565b60006125a88261258a565b9050919050565b6125b88161259d565b82525050565b6125c781612438565b82525050565b600060e0820190506125e2600083018a6124f7565b6125ef6020830189612538565b6125fc60408301886125af565b61260960608301876125be565b61261660808301866124f7565b61262360a08301856124f7565b61263060c08301846124f7565b98975050505050505050565b61264581612526565b811461265057600080fd5b50565b6000813590506126628161263c565b92915050565b6000806040838503121561267f5761267e612433565b5b600061268d85828601612653565b925050602061269e85828601612459565b9150509250929050565b60006020820190506126bd60008301846124f7565b92915050565b6000602082840312156126d9576126d8612433565b5b60006126e784828501612459565b91505092915050565b600060408201905061270560008301856125be565b6127126020830184612538565b9392505050565b6002811061272657600080fd5b50565b60008135905061273881612719565b92915050565b6000806000806080858703121561275857612757612433565b5b600061276687828801612729565b945050602061277787828801612459565b93505060406127888782880161248f565b92505060606127998782880161248f565b91505092959194509250565b60006020820190506127ba6000830184612538565b92915050565b600080604083850312156127d7576127d6612433565b5b60006127e585828601612459565b92505060206127f685828601612653565b9150509250929050565b60008060006060848603121561281957612818612433565b5b600061282786828701612729565b935050602061283886828701612459565b92505060406128498682870161248f565b9150509250925092565b60006020828403121561286957612868612433565b5b60006128778482850161248f565b91505092915050565b600060208201905061289560008301846125be565b92915050565b600080604083850312156128b2576128b1612433565b5b60006128c08582860161248f565b92505060206128d185828601612459565b9150509250929050565b600080604083850312156128f2576128f1612433565b5b600061290085828601612459565b925050602061291185828601612729565b9150509250929050565b600081519050919050565b600082825260208201905092915050565b6000819050602082019050919050565b6129508161246e565b82525050565b61295f81612526565b82525050565b61296e8161259d565b82525050565b61297d81612438565b82525050565b60e0820160008201516129996000850182612947565b5060208201516129ac6020850182612956565b5060408201516129bf6040850182612965565b5060608201516129d26060850182612974565b5060808201516129e56080850182612947565b5060a08201516129f860a0850182612947565b5060c0820151612a0b60c0850182612947565b50505050565b6000612a1d8383612983565b60e08301905092915050565b6000602082019050919050565b6000612a418261291b565b612a4b8185612926565b9350612a5683612937565b8060005b83811015612a87578151612a6e8882612a11565b9750612a7983612a29565b925050600181019050612a5a565b5085935050505092915050565b60006020820190508181036000830152612aae8184612a36565b905092915050565b600060208284031215612acc57612acb612433565b5b6000612ada84828501612653565b91505092915050565b7f4e487b7100000000000000000000000000000000000000000000000000000000600052601160045260246000fd5b6000612b1d8261246e565b9150612b288361246e565b925082821015612b3b57612b3a612ae3565b5b828203905092915050565b7f4e487b7100000000000000000000000000000000000000000000000000000000600052603260045260246000fd5b6000612b808261246e565b91506000821415612b9457612b93612ae3565b5b600182039050919050565b6000612baa8261246e565b91507fffffffffffffffffffffffffffffffffffffffffffffffffffffffffffffffff821415612bdd57612bdc612ae3565b5b600182019050919050565b600082825260208201905092915050565b7f4f776e61626c653a2063616c6c6572206973206e6f7420746865206f776e6572600082015250565b6000612c2f602083612be8565b9150612c3a82612bf9565b602082019050919050565b60006020820190508181036000830152612c5e81612c22565b9050919050565b7f496e73756666696369656e742062616c616e6365000000000000000000000000600082015250565b6000612c9b601483612be8565b9150612ca682612c65565b602082019050919050565b60006020820190508181036000830152612cca81612c8e565b9050919050565b7f4e6f7420656e6f7567682045544820666f72206d61726b657420627579000000600082015250565b6000612d07601d83612be8565b9150612d1282612cd1565b602082019050919050565b60006020820190508181036000830152612d3681612cfa565b9050919050565b7f4e487b7100000000000000000000000000000000000000000000000000000000600052603160045260246000fd5b7f746f6b656e20646f6573206e6f74206578697374000000000000000000000000600082015250565b6000612da2601483612be8565b9150612dad82612d6c565b602082019050919050565b60006020820190508181036000830152612dd181612d95565b9050919050565b7f42616c616e6365206e6f742073756666696369656e7400000000000000000000600082015250565b6000612e0e601683612be8565b9150612e1982612dd8565b602082019050919050565b60006020820190508181036000830152612e3d81612e01565b9050919050565b6000604082019050612e596000830185612538565b612e6660208301846124f7565b9392505050565b60008115159050919050565b612e8281612e6d565b8114612e8d57600080fd5b50565b600081519050612e9f81612e79565b92915050565b600060208284031215612ebb57612eba612433565b5b6000612ec984828501612e90565b91505092915050565b6000606082019050612ee76000830186612538565b612ef46020830185612538565b612f0160408301846124f7565b949350505050565b7f4f776e61626c653a206e6577206f776e657220697320746865207a65726f206160008201527f6464726573730000000000000000000000000000000000000000000000000000602082015250565b6000612f65602683612be8565b9150612f7082612f09565b604082019050919050565b60006020820190508181036000830152612f9481612f58565b9050919050565b6000612fa68261246e565b9150612fb18361246e565b9250827fffffffffffffffffffffffffffffffffffffffffffffffffffffffffffffffff03821115612fe657612fe5612ae3565b5b828201905092915050565b6000612ffc8261246e565b91506130078361246e565b9250817fffffffffffffffffffffffffffffffffffffffffffffffffffffffffffffffff04831182151516156130405761303f612ae3565b5b82820290509291505056fea2646970667358221220adc0c62fd59d0c8a404a2abc7d67b83a17c3807fd446a8fcc260303779faaeec64736f6c634300080b0033",
  "immutableReferences": {},
  "source": "pragma solidity >=0.6.0 <0.8.12;\r\npragma experimental ABIEncoderV2;\r\n\r\nimport \"./wallet.sol\";\r\n\r\ncontract Dex is Wallet {\r\n    using SafeMath for uint256;\r\n\r\n    enum Side {\r\n        BUY,\r\n        SELL\r\n    }\r\n\r\n    struct Order {\r\n        uint id;\r\n        address trader;\r\n        Side side;\r\n        bytes32 ticker;\r\n        uint amount;\r\n        uint price;\r\n        uint filled;\r\n    }\r\n\r\n    uint public nextOrderId = 0;\r\n\r\n    mapping(bytes32 => mapping(uint => Order[])) public orderBook;\r\n\r\n    function getOrderBook(bytes32 ticker, Side side) view public returns(Order[] memory) {\r\n        return orderBook[ticker][uint(side)];\r\n    }\r\n\r\n//    getOrderBook(bytes32(\"LINK\"), Side.BUY)\r\n\r\n    function createLimitOrder(Side side, bytes32 ticker, uint amount, uint price) public {\r\n        if ( side == Side.BUY){\r\n            require(balances[msg.sender][\"ETH\"] >= amount.mul(price));\r\n        }\r\n        else if (side == Side.SELL){\r\n            require(balances[msg.sender][ticker] >= amount);\r\n        }\r\n        Order[]  storage orders = orderBook[ticker][uint(side)];\r\n        orders.push(Order(nextOrderId, msg.sender, side, ticker, amount, price, 0));\r\n\r\n        //Bubble sort\r\n        if(side == Side.BUY){\r\n            for (uint i = orders.length - 1; i > 0; i--) {\r\n                if (orders[i].price < orders[i-1].price) {\r\n                    Order memory newOrder = orders[i];\r\n                    orders[i] = orders[i-1];\r\n                    orders[i-1] = newOrder;\r\n                }\r\n                else {\r\n                    break;\r\n                }\r\n            }\r\n        }\r\n        else if(side == Side.SELL){\r\n            for (uint i = orders.length - 1; i > 0; i--) {\r\n                if (orders[i].price > orders[i-1].price) {\r\n                    Order memory newOrder = orders[i];\r\n                    orders[i] = orders[i-1];\r\n                    orders[i-1] = newOrder;\r\n                }\r\n                else {\r\n                    break;\r\n                }\r\n            }\r\n\r\n        }\r\n\r\n        nextOrderId++;\r\n    }\r\n\r\n    function createMarketOrder(Side side, bytes32 ticker, uint amount) public {\r\n        require(balances[msg.sender][ticker] >= amount, \"Insufficient balance\");\r\n\r\n        uint orderBookSide;\r\n        if (side == Side.BUY){\r\n            orderBookSide = 1;\r\n        }\r\n        else{\r\n            orderBookSide = 0;\r\n        }            \r\n        Order[] storage orders = orderBook[ticker][orderBookSide];\r\n\r\n        uint totalFilled = 0;\r\n\r\n        for (uint256 i=orders.length-1; i>=0 && totalFilled < amount; i--) {\r\n            \r\n            // How much we can fill from order[i]\r\n            uint fillable;\r\n            if (orders[i].amount > (amount - totalFilled)) {\r\n                fillable = amount - totalFilled;\r\n                orders[i].amount = orders[i].amount.sub(fillable);\r\n            }\r\n            else {\r\n                fillable = orders[i].amount;\r\n                orders[i].amount = 0;\r\n                orders[i].filled = 1;\r\n            }\r\n\r\n            // Update totalFilled\r\n            totalFilled = totalFilled.add(fillable);\r\n\r\n            /*\r\n            // calculate total prices\r\n            totalAmount = totalAmount.add(fillable.mul(orders[i].price));\r\n            totalPrice = totalAmount/totalFilled;\r\n            */\r\n\r\n            uint eth_amount;   \r\n            if (side == Side.BUY){\r\n\r\n                // Verify that the market order trader has enough ETH to cover the purchase (require)\r\n                eth_amount = fillable.mul(orders[i].price);\r\n                require(balances[msg.sender][\"ETH\"] >= eth_amount, \"Not enough ETH for market buy\");\r\n\r\n                // Execute the trade & shift balances between buyer/seller\r\n                balances[msg.sender][\"ETH\"].sub(eth_amount);\r\n                balances[orders[i].trader][ticker].sub(fillable);\r\n                balances[msg.sender][ticker].add(fillable);\r\n                balances[orders[i].trader][\"ETH\"].add(eth_amount);\r\n\r\n            }\r\n            else{\r\n\r\n                // Execute the trade & shift balances between buyer/seller\r\n                balances[msg.sender][ticker].sub(fillable);\r\n                balances[orders[i].trader][\"ETH\"].sub(eth_amount);\r\n                balances[msg.sender][\"ETH\"].add(eth_amount);\r\n                balances[orders[i].trader][ticker].add(fillable);\r\n\r\n            }            \r\n\r\n        }\r\n\r\n        //Loop through the orderbook and remove 100% filled orders\r\n        uint len_orders = orders.length;\r\n        uint i = len_orders - 1;\r\n        while (i <= len_orders && orders[i].amount == 0) {\r\n            if (orders[i].amount == 0) {\r\n                orders.pop();\r\n                len_orders = orders.length;\r\n            }\r\n        }\r\n    }\r\n}",
  "sourcePath": "C:\\Users\\Administrador\\Documents\\personal\\crypto\\eth-201\\dex\\contracts\\dex.sol",
  "compiler": {
    "name": "solc",
    "version": "0.8.11+commit.d7f03943.Emscripten.clang"
  },
  "schemaVersion": "3.4.4",
  "updatedAt": "2022-01-14T20:22:50.418Z",
  "devdoc": {
    "kind": "dev",
    "methods": {
      "owner()": {
        "details": "Returns the address of the current owner."
      },
      "renounceOwnership()": {
        "details": "Leaves the contract without owner. It will not be possible to call `onlyOwner` functions anymore. Can only be called by the current owner. NOTE: Renouncing ownership will leave the contract without an owner, thereby removing any functionality that is only available to the owner."
      },
      "transferOwnership(address)": {
        "details": "Transfers ownership of the contract to a new account (`newOwner`). Can only be called by the current owner."
      }
    },
    "version": 1
  },
  "userdoc": {
    "kind": "user",
    "methods": {},
    "version": 1
  }
}